:0200000480007A
:10000000972100009381C13D17010100130181FF79
:100010006F00400100000000000000000000000030
:100020006F000000138541C9938541D16308B50075
:100030002320050013054500E31CB5FE97240000AE
:10004000938404BA97250000938585B9638AB40028
:1000500003A6040093844400E70006006FF09FFEAF
:100060001305000093050000EF00103D737004308D
:100070006F000000130101FF2324810023261100DB
:100080001304050003450500630A0500130414006A
:10009000EF00D07903450400E31A05FE8320C10078
:1000A00003248100130101016780000083470500DC
:1000B000130700026394E708130705009306000284
:1000C0008347170013071700E38CD7FE638E0704DE
:1000D0009306000093050002930890016F008003CF
:1000E0001306150013080600638406042300B500F8
:1000F000130525009386F7FB93F6F60F63E4D8000B
:1001000093E707022300F6008347070093060000E9
:10011000638C070013071700E394B7FC83470700BD
:1001200093061000E39807FE230005006780000097
:1001300013060500130508006FF0DFFB1307050029
:100140006FF0DFF8130101FE232C81002328210129
:1001500023263101232E1100232A9100232441015B
:100160002322510137240080EF00506093090500DD
:10017000138905001304C4BD1305200513041400DE
:10018000EF00D06A03450400E31A05FE9384C1C959
:10019000A3830402930A9000938474021306A000C0
:1001A000930600001385090093050900EF1000472E
:1001B000130405031374F40F138509009305090054
:1001C000A38F84FE1306A00093060000EF001068C2
:1001D000130A0900938709009384F4FF930905002B
:1001E00013890500E31C0AFAE3EAFAFA130504008E
:1001F00093841400EF00906303C40400E31804FE2A
:100200001305D000EF009062032481018320C10117
:1002100083244101032901018329C100032A8100AC
:10022000832A41001305A000130101026F00106032
:10023000130101FD232C4101232A510123286101CF
:1002400023202103232E31012326710123261102AD
:10025000232481022322910293090000138AC1C939
:10026000138B21CC938A41AC13090002930B10002D
:1002700013840A001305700413041400EF00105BCC
:1002800003450400E31A05FE13851903A3030A02BC
:100290002303AA0213040B0013041400EF001059E7
:1002A00003450400E31A05FE1305D003EF001058C0
:1002B000B72400F063940900B71400F09305000020
:1002C00013850400EF00904C1305803EEF0090432F
:1002D000130400009305040013850400EF00D04EC2
:1002E0001304140013050503EF005054E31424FF16
:1002F00013050002EF009053638679019309100003
:100300006FF01FF71305D000EF0050520324810255
:100310008320C10283244102032901028329C101F0
:10032000032A8101832A4101032B0101832BC10090
:100330001305A000130101036F00504F130101FFCB
:1003400023248100372400802326110023229100DA
:1003500023202101130484BE130570051304140027
:10036000EF00D04C03450400E31A05FE378401007A
:100370001304046A9304D0001309A0006F008000E6
:10038000630E2501EFF0DFEA13050400EF0090375C
:10039000370501F0EF009047E31495FE8320C1007C
:1003A000032481008324410003290100130101017A
:1003B00067800000130101FF232481002326110020
:1003C0002322910013848183130540051304140034
:1003D000EF00D04503450400E31A05FE1306800034
:1003E00093854186138541C9EF00902B138841C93D
:1003F00003270800B7676364938717261306000076
:10040000631CF70003264800B7D7CDCC938707EDD0
:100410003306F6001336160037333233B76563649C
:10042000130E0800930608001305000013070000D0
:100430001303031393851526930F3000130FF00F4A
:10044000930E80006F0040049308170693F8F80F8E
:100450006380171793C7F7FF93F7F70F2380F60012
:1004600013060000B317AF00B3C5F50083270800DB
:10047000638AB7041307170013060000938616005B
:10048000130585006302D70783C7060093F7F70FAC
:10049000E3DCEFFA9308C70293F8F80F6382F812CF
:1004A00093C7F7FF93F7F70F2380F60013060000BA
:1004B000930705FEB317FF003343F30083270800BB
:1004C000E39AB7FA832748001307170093861600AC
:1004D000B387674093B71700B307F0403376F60051
:1004E00013058500E312D7FB37AF0000B7D8000033
:1004F000B76F0000370501009300EFD99383F8EC44
:1005000093070000938F1F261305F5FF9302100039
:10051000130FCFB9130420009388D8CC930E40005A
:1005200003570E0013170701135707019346F7FFF0
:100530009396060193D60601638C0708638A570CCD
:10054000938403006384870093840800630E970AF2
:100550002310DE001306000013974700130707FE61
:100560003317E5003343E300032708006302B708AD
:100570001306000093871700130E2E00E392D7FB9B
:100580006304060A138441851305F0041304140060
:10059000EF00D02903450400E31A05FE8320C100C3
:1005A00003248100832441001301010167800000BE
:1005B00093C7F7FF93F7F70F2380F6006FF09FEADA
:1005C00093C8F8FF93F8F80F238016016FF05FEEE1
:1005D00063081704130600002310DE00139747007A
:1005E0003317E500B3C5E50003270800E312B7F8A9
:1005F0000327480033076740133717003307E040ED
:100600003376E6006FF01FF72310DE006FF0DFF4A3
:10061000E304E7FD2310DE00130600006FF01FFC6B
:100620002310FE016FF09FFB1384C1851305600446
:1006300013041400EF00901F03450400E31A05FEA5
:100640008320C100032481008324410013010101A0
:1006500067800000130101FF23248100232611007D
:10066000138401871305200513041400EF00101CE8
:1006700003450400E31A05FE032481008320C10022
:10068000370501F0130101016F00805F130101F9CB
:10069000938781882320F100938781CC2326F10062
:1006A0009387C1CC2322F1029387E1CC2324F1026A
:1006B0009387B1CC2328F100938721CC2320F1022A
:1006C0009387C1AC232CF100938741AD232EF10019
:1006D0009387C1AB232AF100232E3105232C41053A
:1006E000232A5105938741852324810623229106DD
:1006F00023202107232EB103232611062328610579
:100700002326710523248105232291052320A10599
:1007100013091000938A81AB9389C1C9138A41CC14
:100720002322F1001304D0009304A000138B0A00CD
:100730001305E003130B1B00EF00500F03450B00E4
:10074000E31A05FE130B0000930BF0FF130C90004F
:10075000930CF004130D8000370501F0EF00100B2F
:10076000E30C75FF63048504630295046304850349
:100770006306A50393071B00E3E0FCFE338B6901CE
:100780002304AB02138B0700E30809FCEF00100AF7
:100790006FF09FFC130500026FF0DFFDB3376001BF
:1007A000330BFB40E30A09FA6FF05FFE338B6901FC
:1007B00023040B026318090613050A00EFF01F8FCC
:1007C000130600059385C1AD13050A00EF00806F85
:1007D00063100502032B010013053004130B1B00EB
:1007E000EF00D00403450B00E31A05FE6FF01FF481
:1007F00013060005938541AE13050A00EF00806CD7
:10080000631C050213091000032B41001305F004BB
:10081000130B1B00EF00900103450B00E31A05FECC
:100820006FF0DFF01305D000EF0050001305A000BB
:10083000EF00C07F6FF05FF8130600059385C1AE2F
:1008400013050A00EF000068631605001309000095
:100850006FF09FFB13064000938581AF13050A00DC
:10086000EF004066631E05040325C1001306400027
:10087000938501B0EF000065130B0500832B410247
:1008800063100508130630009385C1B213850B0071
:10089000EF0040636302050613064000938501B331
:1008A00013850B00EF0000621306050063180506B0
:1008B00093050B00370500F0EF0080726FF0DFF456
:1008C00013060005938541B313050A00EF00805F0E
:1008D00063160500EFF01F876FF05FE51306000554
:1008E0009385C1B313050A00EF00C05D631E0502C6
:1008F000EFF01F946FF09FE3130610006FF05FFBA3
:100900000325C10013066000938581B0EF00805B72
:10091000130B1000832B8102E30605F6138501B14A
:10092000EFF04FF56FF09FE013060005938541B49B
:1009300013050A00EF00005963160500EFF01FA031
:100940006FF0DFDE13067000938501B513050A0012
:10095000EF00405713060500630605161306000551
:10096000938581B513050A00EF00C055631E051E6F
:100970002324010023262103032B410113054005F5
:10098000130B1B00EF00806A03450B00E31A05FE02
:1009900083278100032B0102A38309021385170318
:1009A0002383A902130B1B00EF00406803450B00D3
:1009B000E31A05FE13050002EF004067832781005C
:1009C000372B00F063940700371B00F09305F0FF0E
:1009D00013050B00EF00805B930C0000930B1000DD
:1009E0001305E002EF00806433099041930509008C
:1009F00013050B00EF00405E13CC1C00130D00002C
:100A000093050D0013060C0013050B00EF00405D6D
:100A100013054006EF00004F13050B00EF00405A8E
:100A200093071000B397A701B3C72701B307F54099
:100A300093B71700B307F04093050D0013860C0021
:100A400013050B00B3FBFB00EF00805913054006B4
:100A5000EF00404B13050B00EF008056B307A94091
:100A600093B71700B307F040B3FBFB00130D1D0055
:100A700093070002E316FDF8930710006396FC123B
:100A80001305E002EF00805A9305000013050B00E8
:100A9000EF00C04F638C0B0A032B8101130500028A
:100AA000130B1B00EF00805803450B00E31A05FEF3
:100AB00083278100130710006392E70E0329C10208
:100AC0006FF0DFC683C7F902130700026396E70ED3
:100AD000032701018347170093060002130717003D
:100AE000E38AD7FE930610036384D70C9306200392
:100AF000372C00F0E394D7E28347170093060002F7
:100B0000E39ED7E013072700130B00009305900026
:100B10006F00400183460700138B07FD9307000217
:100B20006384F60A0345070093172B00B387670118
:100B3000930605FD9397170093F6F60F130717001A
:100B4000B387A700E3F8D5FC6FF05FDD032BC1018D
:100B500013050002130B1B00EF00404D03450B0073
:100B6000E31A05FE6FF0DFF413060005938541B626
:100B700013050A00EF0000356304050413060005A1
:100B80009385C1B613050A00EF00C033630E050854
:100B900083C78902E39407D86FF05FB99307100009
:100BA0002324F1006FF05FDD930C10006FF05FE322
:100BB000371C00F06FF05FF4032701016FF09FF224
:100BC000EFF04FFF6FF09FB68347170093060003C7
:100BD000638CD70093061003638CD7049306A00799
:100BE000E39ED7D21306F0FF83472700E39807D28E
:100BF0009307F001E3C467D3934BF6FF9307F0FF2D
:100C000093DBFB016308F60093050B0013050C0052
:100C1000EF00003D13860B0093050B0013050C003D
:100C2000EF0040376FF05FBEEFF0DFA26FF01FB054
:100C3000130610006FF05FFB130101FF1306100095
:100C400093050000370500F023261100EF0040391E
:100C5000138541B7EFF00FC237250000130505716A
:100C6000EF00402A1306000093050000370500F04E
:100C7000EF00003713858188EFF0CFBFEFF01FA1A1
:100C800013040500370900801309090093090000C7
:100C9000B702010093820200B30459009302800856
:100CA00073B0023013810400170600001306860398
:100CB000970500009385051F9385C5FF83A2050056
:100CC0009384C4FF23A05400B332B600E39602FE1F
:100CD0000F100000678004001300000013000000E4
:100CE000EF00C013930205FEE38C02FE930265FF42
:100CF000E38802FE930235FFE38402FE930265FC63
:100D00006396020EEF00800F930A0500130B050097
:100D1000EF00C00E330BAB001315850033EAA900BA
:100D2000EF00C00D330BAB00336AAA00EF00000DDB
:100D3000330BAB00930B05009382CBFF1385EAFFC7
:100D4000638802009382BBFF1385CAFF639402008D
:100D5000631E050863880A04938AFAFFEF00000AFD
:100D6000330BAB00638C0B009382CBFF638E0200CE
:100D70009302BAFF638202026FF0DFFD2300AA0034
:100D8000130A1A006FF01FFD13158500B3E9A900BF
:100D9000939989006FF01FFC131989003369A9002A
:100DA0006FF05FFBEF008005330BAB00137BFB0F95
:100DB000631E0B02EF008006930265FF638602004C
:100DC000930235FF639402029302E0022320540051
:100DD0009382FBFFE39602F0170500001305050B55
:100DE000EF0000080F100000670009001705000061
:100DF0001305150AEF00C0066F0000001383000002
:100E0000EF00C001EF00000393134500EF00000165
:100E1000EF004002336575006700030003250400FE
:100E20009352050193F212001375F50FE38802FE49
:100E300067800000130505FDE34A05FA930265FF8C
:100E400063CE02001305F5FEE34205FA1375F5FDC6
:100E5000930285FFE3DC02F81305A500678000001C
:100E60008322440093D2F20093F21200E39A02FE2E
:100E700083420500638802002320540013051500F7
:100E80006FF01FFE678000004F4B0D0A004641497E
:100E90004C0D0A00130000001300000013000000B6
:100EA000630006023306C5009307050003C705006B
:100EB0009387170093851500A38FE7FEE398C7FE7D
:100EC00067800000630C06023386C5006F00C00017
:100ED000638607026304B6028347050003C7050063
:100EE0001305150093851500E384E7FE33B5E7008D
:100EF0003305A0401365150067800000130500004E
:100F000067800000732700C0B7D6A3009386A67041
:100F100063F6A602B715AEFF370600209385B547E6
:100F2000130646FF3305B5003307C700F32700C09B
:100F3000B307F740E34CF0FEE3E6A6FE9317150077
:100F4000B387A70093973700B387A700939727002D
:100F50001307B7FF3387E700F32700C0B307F74055
:100F6000E34CF0FE1305000067800000F32700C883
:100F7000732500C0F32500C8B387F54093B7170069
:100F8000B307F0403375F500678000002324B500F7
:100F9000678000000327850093071000B397B70010
:100FA00063080600B367F7002324F500678000009C
:100FB00093C7F7FFB3F7E7002324F500678000002D
:100FC0000325050067800000032505003355B500A3
:100FD00013751500678000002322B50067800000AC
:100FE0000327450093071000B397B7006308060076
:100FF000B367F7002322F5006780000093C7F7FF6F
:10100000B3F7E7002322F500678000000325050001
:10101000B7070100B377F500638607001375F50F76
:10102000678000001305F0FF678000001375F50F5F
:10103000370701F0B786000083274700B3F7D700D2
:10104000E39C07FE2320A70067800000130101FD39
:1010500023248102232671012326110223229102D7
:1010600023202103232E3101232C4101232A510166
:10107000232861012324810123229101930B050080
:1010800013840500639A063813090600130A050045
:10109000938441B963F8C512B7070100138C0500AA
:1010A0006378F6101307F00F3337C70013173700B4
:1010B000B357E600B384F40083C604003387E60028
:1010C00093060002B387E640638CE6003314F40015
:1010D00033D7EB003319F600336C8700339AFB00EB
:1010E000135B090193050B0013050C00EF00D028DA
:1010F0009304050093050B00931A090113050C00D6
:10110000EF00102393DA0A0113040500930505008C
:1011100013850A00EF00101F9394040113570A016E
:1011200033E7E40093090400637EA7003307270137
:101130009309F4FF636827016376A7009309E4FF2E
:10114000330727013304A74093050B001305040060
:10115000EF0090229304050093050B001305040093
:10116000EF00101D131A0A01130405009305050072
:101170009394040113850A00135A0A01EF00901892
:1011800033EA440113060400637CAA00330A4901D0
:101190001306F4FF63662A016374AA001306E4FFD2
:1011A00093970901B3E7C700930400006F00001391
:1011B000B707000113070001E36CF6EE1307800187
:1011C0006FF01FEF93890600631A06009305000075
:1011D00013051000EF00D01513090500B707010033
:1011E000637CF9129307F00F63F4270193098000E1
:1011F000B3573901B384F40083C704009306000297
:10120000B38737013387F6406392F61233042441E3
:1012100093041000935A090193850A0013050400F2
:10122000EF0090159309050093850A00130504004B
:10123000131B0901EF00D00F135B0B011304050012
:101240009305050013050B00EF00D00B93990901DE
:1012500013570A0133E7E900930B0400637EA700EC
:1012600033072701930BF4FF636827016376A70018
:10127000930BE4FF330727013304A74093850A004B
:1012800013050400EF00500F9309050093850A0031
:1012900013050400EF00D009131A0A011304050016
:1012A000930505009399090113050B00135A0A01D0
:1012B000EF00500533EA490113060400637CAA00DD
:1012C000330A49011306F4FF63662A016374AA0016
:1012D0001306E4FF93970B01B3E7C70013850700DC
:1012E000938504008320C1020324810283244102E8
:1012F000032901028329C101032A8101832A4101B3
:10130000032B0101832BC100032C8100832C41009E
:101310001301010367800000B70700019309000172
:10132000E368F9EC930980016FF09FEC3319E90051
:10133000B359F400B3D7FB003314E400B3EA8700D9
:10134000135409019305040013850900339AEB0037
:10135000EF00900293040500930504001385090033
:10136000131B0901EF00C07C135B0B0193090500FF
:101370009305050013050B00EF00C078939404015A
:1013800093D70A01B3E7F400938B090063FEA7002B
:10139000B3872701938BF9FF63E8270163F6A70062
:1013A000938BE9FFB3872701B389A7409305040016
:1013B00013850900EF00407C9305040093040500A9
:1013C00013850900EF00C07613940A019309050004
:1013D000930505009394040113050B0013540401B5
:1013E000EF00407233E4840093870900637EA40019
:1013F000330424019387F9FF636824016376A40012
:101400009387E9FF3304240193940B013304A44030
:10141000B3E4F4006FF01FE063ECD51EB7070100E2
:1014200063F2F604930AF00F33B7DA0013173700AC
:10143000B3D5E600938741B9B387B70083CA0700E5
:1014400093070002B38AEA00B384574163965703B7
:1014500093071000E3E486E833B6CB009347160009
:101460006FF0DFE7B707000113070001E3E2F6FCC6
:10147000130780016FF0DFFBB35C5601B396960053
:10148000B3ECDC00B359540133149400B3DA5B01BC
:10149000B3EA8A0013D40C019305040013850900F4
:1014A00033199600EF00406D130A05009305040000
:1014B00013850900139B0C01EF008067135B0B0180
:1014C000930905009305050013050B00EF008063E9
:1014D000131A0A0113D70A013367EA00138C0900B3
:1014E000637EA70033079701138CF9FF63689701A8
:1014F0006376A700138CE9FF33079701B309A74070
:101500009305040013850900EF00006793050400AC
:10151000130A050013850900EF00806113940A0186
:101520009309050093050500131A0A0113050B0022
:1015300013540401EF00005D33648A001386090030
:10154000637EA400330494011386F9FF6368940159
:101550006376A4001386E9FF3304940193170C010A
:10156000370E0100B3E7C7001303FEFFB3F86700AF
:10157000337369003304A44093DE07011359090152
:101580001385080093050300EF00C05713080500FA
:101590009305090013850800EF00C0569308050065
:1015A0009305030013850E00EF00C05513030500DB
:1015B0009305090013850E00EF00C054135708016E
:1015C000B38868003307170193060500637467004A
:1015D000B306C50113550701B306D5006366D402EF
:1015E000E314D4BC370501001305F5FF3377A700DA
:1015F000131707013378A800B39B9B00330707013B
:1016000093040000E3FCEBCC9387F7FF6FF0DFB9A6
:1016100093040000930700006FF05FCC130101FDFD
:101620002324810223229102232021032328610104
:1016300023261102232E3101232C4101232A51019B
:101640002326710123248101232291012320A1015A
:1016500013090500138B050013040500938405008E
:10166000639A0626130A060093890600938A41B9F5
:1016700063F2C514B70701006374F6129307F00F05
:1016800063F4C70093098000B3573601B38AFA00A8
:1016900083C70A0013070002B3873701B309F74075
:1016A000630CF700B3153B01B357F900331A360149
:1016B000B3E4B70033143901935A0A0193850A0041
:1016C00013850400EF00404B1309050093850A00C1
:1016D000131B0A0113850400EF008045135B0B0107
:1016E0009305050013050B00EF00C0411319090114
:1016F00093570401B367F90063FAA700B387470162
:1017000063E6470163F4A700B3874701B384A740AA
:1017100093850A0013850400EF00004613090500B5
:1017200093850A0013850400EF0080401314040120
:10173000930505001319090113050B001354040147
:10174000EF00403C33648900637AA4003304440111
:10175000636644016374A400330444013304A44069
:1017600033553401930500008320C1020324810214
:1017700083244102032901028329C101032A810133
:10178000832A4101032B0101832BC100032C81001B
:10179000832C4100032D0100130101036780000029
:1017A000B707000193090001E360F6EE9309800199
:1017B0006FF09FED631A06009305000013051000FB
:1017C000EF000037130A0500B7070100637AFA0E2D
:1017D0009307F00F63F4470193098000B3573A0170
:1017E000B38AFA0083C70A0013070002B3044B410F
:1017F000B3873701B309F740E300F7EC331A3A0136
:10180000B35AFB00B3153B01B357F90093540A01D7
:1018100033EBB70013850A0093850400EF00C03551
:101820009385040033143901931B0A011309050041
:1018300013850A00EF00C02F93DB0B019305050011
:1018400013850B00EF00002C1319090193570B01AE
:10185000B367F90063FAA700B387470163E647015E
:1018600063F4A700B3874701B38AA74093850400B8
:1018700013850A00EF00403013090500938504002A
:1018800013850A00EF00C02A9305050013850B009D
:10189000EF00402793150B011319090193D505019A
:1018A000B365B90063FAA500B385450163E6450158
:1018B00063F4A500B3854501B384A5406FF0DFDF75
:1018C000B707000193090001E36AFAF09309800168
:1018D0006FF0DFF0E3EAD5E8B707010063FAF6043A
:1018E000930AF00F33B5DA001315350033D7A6008D
:1018F000938741B9B387E70083CA070093070002C3
:10190000B38AAA00338A5741639E570363E4660192
:10191000636AC9003304C940B305DB40333589002D
:10192000B384A54013050400938504006FF0DFE342
:10193000B707000113050001E3EAF6FA1305800179
:101940006FF0DFFAB3964601B357560133ECD70078
:10195000335D5B01B3154B01B3545901135B0C01AB
:10196000B3E4B40013050D0093050B00B31C46014E
:10197000EF0080209309050093050B0013050D006F
:10198000931B0C01EF00C01A93DB0B0193050500BC
:10199000331449011309050013850B00EF0080166D
:1019A0009399090113D7040133E7E900130D0900E6
:1019B000637EA70033078701130DF9FF6368870172
:1019C0006376A700130DE9FF330787013309A740AA
:1019D00093050B0013050900EF00001A9309050099
:1019E00093050B0013050900EF008014130905008F
:1019F0009305050013850B00EF00C0101397040139
:101A0000939909011357070133E7E9009307090088
:101A1000637EA700330787019307F9FF6368870197
:101A20006376A7009307E9FF33078701B70E01002C
:101A3000131D0D01336DFD009387FEFFB378FD008C
:101A4000B3F7FC003307A740135D0D0113DE0C0153
:101A50001385080093850700EF00C00A13080500EE
:101A600093050E0013850800EF00C00993080500D8
:101A70009385070013050D00EF00C0081303050050
:101A800093050E0013050D00EF00C00793570801E2
:101A9000B3886800B387170163F467003305D50185
:101AA00093D50701B385A500370501001305F5FFA0
:101AB000B3F7A700939707013375A8003385A700F4
:101AC0006366B700631EB700637CA40033069541CC
:101AD000B337C500B3878701B385F540130506000A
:101AE0003305A4403334A400B305B740B385854023
:101AF00033945501335545013365A400B3D54501F1
:101B00006FF09FC6130605001305000093F615003D
:101B1000638406003305C50093D51500131616001F
:101B2000E39605FE678000006340050663C6050670
:101B300013860500930505001305F0FF630C0602EC
:101B400093061000637AB6006358C000131616009F
:101B500093961600E36AB6FE1305000063E6C5001F
:101B6000B385C5403365D50093D6160013561600CD
:101B7000E39606FE6780000093820000EFF05FFBB3
:101B800013850500678002003305A04063D8050077
:101B9000B305B0406FF0DFF9B305B04093820000A9
:101BA000EFF01FF93305A040678002009382000028
:101BB00063CA0500634C0500EFF09FF7138505002D
:101BC00067800200B305B040E35805FE3305A0402E
:0C1BD000EFF01FF63305B0406780020004
:101BDC0052444359434C45203D20000057617463E7
:101BEC0068696E67204750494F2C2070726573737B
:101BFC0020456E74657220746F2073746F70202E84
:101C0C002E2E0D0A0000000054657374696E672057
:101C1C006D656D6F727920616363657373202E2E11
:101C2C002E2000004F4B0D0A000000004641494C8D
:101C3C000D0A000061626364303132330000000031
:101C4C0052656164696E672048455820646174610F
:101C5C00202E2E2E20000000436F6D6D616E64737C
:101C6C003A0D0A202068656C70202020202020204E
:101C7C0020202020202020202020202020202D204B
:101C8C0053686F77207468697320746578740D0AD3
:101C9C0020206563686F207B6F6E7C6F66667D208D
:101CAC0020202020202020202020202D20456E6167
:101CBC00626C65206F722064697361626C6520636D
:101CCC006F6D6D616E64206563686F0D0A20206C0A
:101CDC006564207B7265647C677265656E7D207BB4
:101CEC006F6E7C6F66667D202D205475726E204C55
:101CFC004544206F6E206F72206F66660D0A20209F
:101D0C0072646379636C65202020202020202020C1
:101D1C002020202020202020202D2053686F772089
:101D2C00696E737472756374696F6E206379636C1A
:101D3C006520636F756E7465720D0A20206765747B
:101D4C006770696F20202020202020202020202058
:101D5C002020202020202D2053686F7720475049C9
:101D6C004F20696E7075742073746174650D0A2050
:101D7C002077617463686770696F202020202020B1
:101D8C00202020202020202020202D20576174632B
:101D9C0068204750494F20696E70757420737461C8
:101DAC0074650D0A20207365746770696F7B317CD4
:101DBC00327D207B302E2E33317D207B307C317C6C
:101DCC005A7D202D20536574204750494F206F7544
:101DDC00747075742070696E2073746174650D0A6B
:101DEC002020746573746770696F20202020202078
:101DFC0020202020202020202020202D20546573FE
:101E0C0074204750494F20696E7075742F6F75742C
:101E1C007075740D0A2020746573746D656D2020C7
:101E2C0020202020202020202020202020202020A6
:101E3C002D20546573742073696D706C65206D650D
:101E4C006D6F7279206163636573730D0A2020686E
:101E5C006578626F6F7420202020202020202020A5
:101E6C0020202020202020202D204C6F6164206118
:101E7C006E642065786563757465204845582066E6
:101E8C00696C650D0A0D0A003E3E200054657374A2
:101E9C00696E67204750494F00000000204F4B0DE2
:101EAC000A000000204641494C0D0A0068656C7020
:101EBC00000000006563686F206F6E006563686FDB
:101ECC00206F6666000000006C6564200000000056
:101EDC007265642000000000677265656E2000006A
:101EEC004552524F523A20756E6B6E6F776E20636F
:101EFC006F6D6D616E640D0A000000006F6E000066
:101F0C006F66660072646379636C650067657467FD
:101F1C0070696F0077617463686770696F000000A7
:101F2C007365746770696F00746573746770696F3B
:101F3C0000000000746573746D656D0068657862EF
:101F4C006F6F740054453038393020524953432D4B
:101F5C005620626F6F74206D6F6E69746F720D0A0C
:101F6C000D0A00000001020203030303040404042D
:101F7C000404040405050505050505050505050509
:101F8C0005050505060606060606060606060606E9
:101F9C0006060606060606060606060606060606D5
:101FAC0006060606070707070707070707070707B9
:101FBC0007070707070707070707070707070707A5
:101FCC000707070707070707070707070707070795
:101FDC000707070707070707070707070707070785
:101FEC000707070708080808080808080808080869
:101FFC000808080808080808080808080808080855
:10200C000808080808080808080808080808080844
:10201C000808080808080808080808080808080834
:10202C000808080808080808080808080808080824
:10203C000808080808080808080808080808080814
:10204C000808080808080808080808080808080804
:10205C0008080808080808080808080808080808F4
:04206C000808080850
:040000058000000077
:00000001FF
